{
  "contractName": "SkillContract",
  "abi": [
    {
      "anonymous": false,
      "inputs": [
        {
          "indexed": false,
          "internalType": "uint256",
          "name": "id",
          "type": "uint256"
        },
        {
          "indexed": false,
          "internalType": "string",
          "name": "name",
          "type": "string"
        }
      ],
      "name": "NewMonster",
      "type": "event"
    },
    {
      "anonymous": false,
      "inputs": [
        {
          "indexed": true,
          "internalType": "address",
          "name": "previousOwner",
          "type": "address"
        },
        {
          "indexed": true,
          "internalType": "address",
          "name": "newOwner",
          "type": "address"
        }
      ],
      "name": "OwnershipTransferred",
      "type": "event"
    },
    {
      "inputs": [
        {
          "internalType": "uint256",
          "name": "",
          "type": "uint256"
        }
      ],
      "name": "monsterToOwner",
      "outputs": [
        {
          "internalType": "address",
          "name": "",
          "type": "address"
        }
      ],
      "stateMutability": "view",
      "type": "function",
      "constant": true
    },
    {
      "inputs": [
        {
          "internalType": "uint256",
          "name": "",
          "type": "uint256"
        }
      ],
      "name": "monsters",
      "outputs": [
        {
          "internalType": "uint256",
          "name": "monsterID",
          "type": "uint256"
        },
        {
          "internalType": "string",
          "name": "monsterName",
          "type": "string"
        }
      ],
      "stateMutability": "view",
      "type": "function",
      "constant": true
    },
    {
      "inputs": [],
      "name": "owner",
      "outputs": [
        {
          "internalType": "address",
          "name": "",
          "type": "address"
        }
      ],
      "stateMutability": "view",
      "type": "function",
      "constant": true
    },
    {
      "inputs": [
        {
          "internalType": "address",
          "name": "newOwner",
          "type": "address"
        }
      ],
      "name": "transferOwnership",
      "outputs": [],
      "stateMutability": "nonpayable",
      "type": "function"
    },
    {
      "inputs": [
        {
          "internalType": "address",
          "name": "_owner",
          "type": "address"
        }
      ],
      "name": "getMonstersByOwner",
      "outputs": [
        {
          "internalType": "uint256[]",
          "name": "",
          "type": "uint256[]"
        }
      ],
      "stateMutability": "view",
      "type": "function",
      "constant": true
    }
  ],
  "bytecode": "0x608060405234801561000f575f80fd5b50335f806101000a81548173ffffffffffffffffffffffffffffffffffffffff021916908373ffffffffffffffffffffffffffffffffffffffff1602179055506108cd8061005c5f395ff3fe608060405234801561000f575f80fd5b5060043610610055575f3560e01c80638da5cb5b14610059578063c0576b7314610077578063c21ca275146100a8578063d8141d94146100d8578063f2fde38b14610108575b5f80fd5b610061610124565b60405161006e91906104fe565b60405180910390f35b610091600480360381019061008c919061054e565b610147565b60405161009f929190610612565b60405180910390f35b6100c260048036038101906100bd919061054e565b6101fc565b6040516100cf91906104fe565b60405180910390f35b6100f260048036038101906100ed919061066a565b61022c565b6040516100ff919061074c565b60405180910390f35b610122600480360381019061011d919061066a565b610377565b005b5f8054906101000a900473ffffffffffffffffffffffffffffffffffffffff1681565b60018181548110610156575f80fd5b905f5260205f2090600302015f91509050805f01549080600101805461017b90610799565b80601f01602080910402602001604051908101604052809291908181526020018280546101a790610799565b80156101f25780601f106101c9576101008083540402835291602001916101f2565b820191905f5260205f20905b8154815290600101906020018083116101d557829003601f168201915b5050505050905082565b6002602052805f5260405f205f915054906101000a900473ffffffffffffffffffffffffffffffffffffffff1681565b60605f60035f8473ffffffffffffffffffffffffffffffffffffffff1673ffffffffffffffffffffffffffffffffffffffff1681526020019081526020015f205467ffffffffffffffff811115610286576102856107c9565b5b6040519080825280602002602001820160405280156102b45781602001602082028036833780820191505090505b5090505f805b60018054905081101561036c578473ffffffffffffffffffffffffffffffffffffffff1660025f8381526020019081526020015f205f9054906101000a900473ffffffffffffffffffffffffffffffffffffffff1673ffffffffffffffffffffffffffffffffffffffff1603610359578083838151811061033e5761033d6107f6565b5b602002602001018181525050818061035590610850565b9250505b808061036490610850565b9150506102ba565b508192505050919050565b5f8054906101000a900473ffffffffffffffffffffffffffffffffffffffff1673ffffffffffffffffffffffffffffffffffffffff163373ffffffffffffffffffffffffffffffffffffffff16146103cd575f80fd5b5f73ffffffffffffffffffffffffffffffffffffffff168173ffffffffffffffffffffffffffffffffffffffff1603610404575f80fd5b8073ffffffffffffffffffffffffffffffffffffffff165f8054906101000a900473ffffffffffffffffffffffffffffffffffffffff1673ffffffffffffffffffffffffffffffffffffffff167f8be0079c531659141344cd1fd0a4f28419497f9722a3daafe3b4186f6b6457e060405160405180910390a3805f806101000a81548173ffffffffffffffffffffffffffffffffffffffff021916908373ffffffffffffffffffffffffffffffffffffffff16021790555050565b5f73ffffffffffffffffffffffffffffffffffffffff82169050919050565b5f6104e8826104bf565b9050919050565b6104f8816104de565b82525050565b5f6020820190506105115f8301846104ef565b92915050565b5f80fd5b5f819050919050565b61052d8161051b565b8114610537575f80fd5b50565b5f8135905061054881610524565b92915050565b5f6020828403121561056357610562610517565b5b5f6105708482850161053a565b91505092915050565b6105828161051b565b82525050565b5f81519050919050565b5f82825260208201905092915050565b5f5b838110156105bf5780820151818401526020810190506105a4565b5f8484015250505050565b5f601f19601f8301169050919050565b5f6105e482610588565b6105ee8185610592565b93506105fe8185602086016105a2565b610607816105ca565b840191505092915050565b5f6040820190506106255f830185610579565b818103602083015261063781846105da565b90509392505050565b610649816104de565b8114610653575f80fd5b50565b5f8135905061066481610640565b92915050565b5f6020828403121561067f5761067e610517565b5b5f61068c84828501610656565b91505092915050565b5f81519050919050565b5f82825260208201905092915050565b5f819050602082019050919050565b6106c78161051b565b82525050565b5f6106d883836106be565b60208301905092915050565b5f602082019050919050565b5f6106fa82610695565b610704818561069f565b935061070f836106af565b805f5b8381101561073f57815161072688826106cd565b9750610731836106e4565b925050600181019050610712565b5085935050505092915050565b5f6020820190508181035f83015261076481846106f0565b905092915050565b7f4e487b71000000000000000000000000000000000000000000000000000000005f52602260045260245ffd5b5f60028204905060018216806107b057607f821691505b6020821081036107c3576107c261076c565b5b50919050565b7f4e487b71000000000000000000000000000000000000000000000000000000005f52604160045260245ffd5b7f4e487b71000000000000000000000000000000000000000000000000000000005f52603260045260245ffd5b7f4e487b71000000000000000000000000000000000000000000000000000000005f52601160045260245ffd5b5f61085a8261051b565b91507fffffffffffffffffffffffffffffffffffffffffffffffffffffffffffffffff820361088c5761088b610823565b5b60018201905091905056fea2646970667358221220a3877359dad4ba78641454f1a95d420ca97b762a8c9841fa33f3db43005622fc64736f6c63430008140033",
  "immutableReferences": {},
  "source": "// SPDX-License-Identifier: MIT\r\npragma solidity ^0.8.9;\r\n\r\nimport \"./ownable.sol\";\r\n\r\n// AI\r\ncontract SkillContract is Ownable{\r\n\r\n    // \r\n    event NewMonster(uint id, string name);\r\n\r\n    // Monsterinitial\r\n    struct Skill{\r\n        uint skillID;\r\n        uint32 skillPoint;\r\n        uint32 skillLevel;\r\n        string skillDescription;\r\n        bool isLearned;\r\n    }\r\n\r\n    // Monsterinitial\r\n    struct Monster{\r\n        uint monsterID;\r\n        string monsterName;\r\n        Skill[] skills;\r\n    }\r\n\r\n    // arraymonsters\r\n    Monster[] public monsters;\r\n\r\n    // ID\r\n    mapping(uint => address) public monsterToOwner;\r\n\r\n    // \r\n    mapping(address => uint) ownerMonsterCount;\r\n\r\n    // skills\r\n    function getMonsterSkills(uint _monsterID) private view returns (Skill[] memory) {\r\n        return monsters[_monsterID].skills;\r\n    }\r\n\r\n    // Monster\r\n    function addMonster(uint _monsterID, string storage _monsterName) internal {\r\n        Monster memory newMonster = Monster(_monsterID, _monsterName, new Skill[](0));\r\n        uint id = monsters.length;\r\n        monsters.push(newMonster);\r\n\r\n        // monster\r\n        monsterToOwner[id] = msg.sender;\r\n        ownerMonsterCount[msg.sender]++;\r\n        // 5monsters\r\n        require(ownerMonsterCount[msg.sender] <= 5);\r\n        \r\n        // ()\r\n        \r\n        emit NewMonster(_monsterID, _monsterName);\r\n    }\r\n\r\n    // Skill\r\n    function addSkill(uint _monsterID, uint32 _skillLevel, uint _skillID, uint32 _skillPoint, string storage _skillDescription) internal {\r\n        Monster storage monster = monsters[_monsterID];\r\n        monster.skills.push(Skill(_skillID, _skillLevel,  _skillPoint, _skillDescription, false));\r\n    }\r\n\r\n    // skill\r\n    function learnSkill(uint _monsterID, uint _skillID) private {\r\n        // Monster\r\n        // skillIDMonsterskills\r\n        Monster storage monster = monsters[_monsterID];\r\n        require(_skillID < monster.skills.length, \"Invalid skill id\");\r\n        \r\n        // Monsterskilltrue\r\n        Skill storage skill = monster.skills[_skillID];\r\n        skill.isLearned = true;\r\n    }\r\n\r\n    // monsters\r\n    function getMonstersByOwner(address _owner) external view returns (uint[] memory) {\r\n    uint[] memory result = new uint[](ownerMonsterCount[_owner]);\r\n    uint counter = 0;\r\n        for (uint i = 0; i < monsters.length; i++) {\r\n            if (monsterToOwner[i] == _owner) {\r\n                result[counter] = i;\r\n                counter++;\r\n            }\r\n        }\r\n    return result;\r\n}\r\n\r\n}",
  "sourcePath": "C:\\Users\\xianz\\Skillverse\\Hackthon2023\\Skillverse\\project\\contracts\\contracts\\SkillContract.sol",
  "compiler": {
    "name": "solc",
    "version": "0.8.20+commit.a1b79de6.Emscripten.clang"
  },
  "schemaVersion": "3.4.14",
  "updatedAt": "2023-05-31T08:09:56.963Z",
  "networkType": "ethereum",
  "devdoc": {
    "kind": "dev",
    "methods": {
      "transferOwnership(address)": {
        "details": "Allows the current owner to transfer control of the contract to a newOwner.",
        "params": {
          "newOwner": "The address to transfer ownership to."
        }
      }
    },
    "version": 1
  },
  "userdoc": {
    "kind": "user",
    "methods": {},
    "version": 1
  }
}